S01B00006275696C642F72656C656173652F7A69676265652E73333714
S21400400008100020116D00006DB00000B7310300ED
S214004010B731030075B000007DB00000B731030073
S214004020B7310300B7310300B7310300B7310300DF
S21400403081B00000C4740400B7310300B731030038
S214004040B7310300B7310300B73103002968000019
S214004050B7310300B7310300B7310300B7310300AF
S214004060B7310300B731030081B50000B731030054
S214004070B7310300B7310300B7310300B73103008F
S214004080B7310300B7310300B7310300B73103007F
S214004090B7310300B7310300B7310300B73103006F
S2140040A0B73103007D70000061700000B731030077
S2140040B0B7310300B7310300B7310300F100020047
S2140040C0658D0300618D030055F801007B8D0300AC
S2140040D0698D0300B10002006D8D0300E5E4010068
S2140040E031010200B7310300B7310300B7310300D6
S2140040F0B7310300B7310300B7310300B73103000F
S214004100B7310300B7310300B7310300B7310300FE
S214004110B7310300B7310300B7310300B7310300EE
S214004120B7310300B7310300B7310300B7310300DE
S208004130B73103009B
S214004134F0B5114A114C124E00F00105E3695F0711
S21400414413D40DB9334213D103EA00078F4207D1C3
S2140041540B4A1A40002A14BF6FF001000020F0BD7D
S214004164013AEBD16FF00200F9E74FF0FF30F6E7C3
S2140041746FF00100F3E700BF80969800000003503C
S214004184020001000B4B70B5D96911F480310DD1D2
S21400419401244FF48072084E084DF46020462C64C7
S2140041A41A61FFF7C5FF3464EC6070BD6FF0010060
S2140041B4FBE700BF0000035000100350002003502C
S2140041C438B541F6713301220C4C0021E569E363EE
S2140041D40B4B05F48035DA600223606121202361ED
S2140041E4FFF7A6FF10B92120FFF7A2FF0122054B17
S2140041F4DA600DB10023E36338BD00BF000003504E
S214004204001003500020035070B5134C6061E3693E
S2140042145B071ED40E4656F8043B8D18A361AE42C7
S2140042240BD10423002121202361FFF781FF58B915
S214004234BDE870402120FFF77BBF08210846FFF742
S21400424477FF10B10423236170BD56F8043BA361C5
S214004254E5E74FF0FF30F7E7000003502DE9F84399
S214004264154641F67132164B8946DF69DA63012238
S214004274064603F58053DFF8508007F48037DA608B
S21400428455B9284601220F4BDA601FB10022A3F568
S2140042940053DA63BDE8F88306F5005404EA08041C
S2140042A4A41BAC4228BF2C46494622463046FFF79C
S2140042B4ABFF0028E6D12644A1442D1BE0E700BF4F
S2100042C4000003500020035000E0FFFF45
S2140042D02DE9F04F4FF0FD0BC9B09A460DF11B09C2
S2140042E09DF8503108AFCDF80C90CDF808B0019786
S2140042F0059303890446009383790E4690464188C9
S2140043008288407810F012FC054650B10090A388D1
S214004310002062883A4910F04DFF284649B0BDE8B3
S214004320F08F99F8000032F034F838B12846A388A8
S2140043306288344910F03EFF8D25EEE75A4639462E
S21400434099F8000031F0CDFF8346002851D0529BEB
S2140043501BB1BDF84C3198424BD8002399F8009019
S2140043600793A9F14102012A5FFA8BF123D8384658
S2140043700139254ADFF898C05FFA81FE734513DBE2
S214004380059B04210792C3B907AF18221F489FED6B
S2140043901A7B02FB060420460A460830394684ED9E
S2140043A0027B15F05DFC11E010F8011F013351404F
S2140043B00CFB01F2E2E7059B33B123464A4638463A
S2140043C000960EF0F5FBA8E70829DED9B8F1000F35
S2140043D001D088F80090BAF1000F01D0AAF800B01A
S2140043E0529B002B99D05A46184608A915F038FC5F
S2140043F093E7012591E700BF0000000000000000E1
S214004400981E0400CD1E0400C59D1C81801000204F
S21400441093010001000000002DE9F04F93B0CDE9B4
S2140044200A32DDE91C530E9353EC102BCDE908013C
S214004430104619468DED060B1E9E14F09BFE80B1AD
S214004440DDE906014FF0FF32C54B14F0BBFE40B964
S214004450DDE906014FF0FF326FF4801314F094FE8E
S21400446070B1DDE908019DED060B0E9B1E96CDE9A9
S2140044701C53DDE90A3213B0BDE8F04F00F088B9EE
S2140044800022DDE90601002314F07EFE002800F07D
S2140044903381DDE906A303F1004BCBF30A5016F493
S2140044A08063A0F2FF3008BF06250F9314F090FB40
S2140044B09BA3D3E9002314F0F5FB9BA3D3E90023C9
S2140044C014F03AFACBF31304894644F07F51804641
S2140044D00022A44B504641F4401114F02BFA94A34A
S2140044E0D3E9002314F0DEFB02460B46404649465D
S2140044F014F022FA14F070FE044614F069FB8EA342
S214004500D3E900238046894614F0CCFB0022964B64
S21400451014F012FA14F060FE89A3D3E900230746CC
S2140045204946404614F0BEFB80463846894614F09D
S2140045304FFB85A3D3E9002314F0B4FB02460B46D9
S2140045404046494614F0F6F902460B46CDE90C23E0
S21400455014F0A8FBDDE90C23804689461046194670
S21400456014F0EAF90022CDE91001804B4046494696
S21400457014F0C2FC00227E4B14F0DEF902460B4615
S2140045804046494614F0B8FC00227A4B14F0D4F9A1
S21400459002460B464046494614F0AEFCDDE90C23C5
S2140045A08046894600204FF0804114F0C3F9024649
S2140045B00B464046494614F0BFF902460B46DDE975
S2140045C0100114F099FC07F2FF3700226A4B14F032
S2140045D0B3F900223B0514F065FB52465B46804665
S2140045E0894614F0EFFD002840F08980CDE90C895B
S2140045F004F16303C62B8CBF0527042731051BD5A2
S21400460053A3D3E900235046594614F0D1FD0028A1
S2140046107FD051A3D3E900235046594614F0B4FD89
S214004620002876D00027A542C6BF2C1B04F1FF3514
S21400463000253C4646F480660E9B9F422CBF4FF0FA
S2140046400008A3EB070816F0020903D0002F18BFD6
S2140046504FF000083CB1DDE90C235046594614F0F3
S2140046604BFC82468B46DDE906010022002314F04F
S2140046708BFD10B10BF100439B46DDE9080126F4E3
S2140046800063CDE90183DDE90A324BEC10AB0095FF
S21400469000F07EF802465FB3DDE9091316F0200F3E
S2140046A000F10105089E0CBF65204520B047DDE9F6
S2140046B008010523002205930A23002CCDE90232C7
S2140046C007F1FF374FEAD473B8BF64422A46019316
S2140046D004970A9B009433F0BDFC0246B9F1000F24
S2140046E006D00B9BC41A0B9B1A190E9BA34245D8E7
S2140046F0104613B0BDE8F08FDDE906ABCDE600222C
S214004700404649461A4B14F0F7FB013CCDE90C0134
S2140047106EE7002D90D00F9B002B8DD0013D8BE7D0
S214004720FB799F501344D33FB3C8608B288AC63F9B
S21400473061436F63A787D23F71A379094F930A40FD
S2140047401655B5BBB16B0240EF39FAFE422EE63F76
S2140047502D431CEBE2361A3F0000000080842E41F9
S214004760FFFFEF7F0000F83F0000E03F00002C4016
S21400477000002440000018400000F03F2020DDE943
S2140047800913089DA8470134ADE700BF00000000EC
S2140047902DE9F04F5BEC10AB97B0CDE90501DDE9F4
S2140047A02058CDE90723504652465B465946229F7D
S2140047B014F0E0FC70B90323CDE902870193AA4BFD
S2140047C00093DDE90501DDE9072333F075FB17B03B
S2140047D0BDE8F08F4FF0FF326FF480135046594615
S2140047E014F0D2FC28B10423CDE9028701939F4B35
S2140047F0E6E74FF0FF32504659469D4B14F0E2FC78
S21400480068B19C4A07F00403002B08BF03229A4BAA
S2140048101CBF13460422CDE902870192D0E750461A
S2140048208DA3D3E90023594614F0CCFC38B98CA3E9
S214004830D3E900235046594614F0A6FC68B1DDE9DA
S2140048400723DDE905014BEC10ABCDE92187209568
S21400485017B0BDE8F04FFFF7DFBD0022002350463B
S214004860594614F091FC002800F091805B465246B1
S2140048700020002114F05EF8012382468B4609933F
S21400488017F4806400F08580092D40F285800024AE
S21400489030210EABA5F109020134202C03F8011BD0
S2140048A0A5EB040901D09442F6D15946504614F0BF
S2140048B093FC724B054603EBC90393ED007B8DED2D
S2140048C00A7B14F085F902460B465046594614F00A
S2140048D031F8DDE90A2314F0E5F902460B46CDE986
S2140048E00C2314F0A1FC064614F062F902460B46AF
S2140048F0DDE90C0114F01EF802460B46CDE90C2348
S21400490000225F4B14F05EFC002848D0013630468B
S21400491014F04EF902460B46DDE90A0114F03EFC9F
S21400492008B100260135B9F1000F45D1284614F02C
S2140049304FF902460B465046594613F0FBFF00223D
S2140049404F4B14F021FC10B9E90700D501350A21B8
S2140049500EAB1A19202C0AD095FBF1F001FB10556E
S214004960303502F8015B013405460028F2D107F025
S2140049700302012A55D1B8F1000F52D0099A12B994
S21400498017F00C0F01D008F1FF38302240E00990F4
S21400499076E74FF0060988E7A946002485E7002257
S2140049A0DDE90C01364B14F0EFFB0028BBD10EB14D
S2140049B0F007B8D50136B6E70A210EAB1A19202C37
S2140049C00DD0B6FBF1F001FB1063092E03F13003A6
S2140049D009F1FF3904F1010402F8013B11D8302136
S2140049E0A1440EAA202CB2D04C4504F101030AD1F2
S2140049F004F158020DEB02042E2204F8202C1C466B
S214004A00A5E70646DBE7A1541C46EBE71A5501343A
S214004A10444506D2202CF9D1CDE9028701940EAB8D
S214004A20CEE6202CF8D0099B3BB12D2204F158038A
S214004A306B4403F8202C0134EEE77A0704D504F122
S214004A4058032B226B44F4E73B07E5D504F15803E3
S214004A5020226B44EDE700BF0000000065CDCD418D
S214004A600000000065CDCDC16E3C0400723C040021
S214004A70FFFFEF7F653C04006A3C0400A882040048
S214004A800000E03F0000000070B58EB02C22002130
S214004A9003A814F055FF64234FF002320893CDE9C3
S214004AA005230B2301218DF834305B4B8DF8101055
S214004AB01D880D4040F0A980084637F089FD0A227F
S214004AC0564B574C1A704FF42873ADF812304FF00F
S214004AD0FF332360534B54491B8820460B82534BAD
S214004AE0534A1B68CD828B61524B0D621B884B82EA
S214004AF0514B1B68CB611BF091FB20B14FF41B712F
S214004B004E4838F0A3FE0521206833F08CFC20B117
S214004B1040F27D21494838F099FE206813F0C6FE21
S214004B20474B2068196833F041FD0C2538F0B8F97A
S214004B306843099038F0B4F968430DEB0501079017
S214004B40206815F0BFFD20B140F295213B4838F0B3
S214004B507DFE25681DF00CFF00220146284633F036
S214004B609DFD20B140F29721344838F06FFE40F2A8
S214004B700353344D344E2B80052396F90000AB705A
S214004B807F2801D11BF040FC3378EB7038F088F9B1
S214004B9000EB80008000A88038F082F90023C00077
S214004BA04FF0FF31E880AB604FF0FF3018A3D3E939
S214004BB0002337F05FFE2549206833F028FD206883
S214004BC002A934F044F920B14FF434711B4838F090
S214004BD03DFE042220680DEB020133F0BCFC0428E5
S214004BE004D040F2D721154838F030FE01A9012044
S214004BF033F0C7F806F07EFA01201CF097F82FF085
S214004C005BF81CF0BDF81BF097FB0EB070BD00BF44
S214004C100A0020FF4203000016550020B05B00206B
S214004C20484D0020DA9B0400E8610020E09B040069
S214004C30F9C50300D89B0400DC9B04009D730400A8
S214004C40D85F00203C4D0020F76400206DC60300AE
S214004C500348044B834202D0034B03B11847704706
S214004C602C6500202C65002000000000064B07493C
S214004C70C91A891048BF0131491003D0044B0BB143
S214004C8001481847704700BF2C6500202C6500209F
S214004C900000000010B5064C237843B9FFF7D8FF94
S214004CA0044B13B10448AFF300800123237010BDFA
S214004CB0681600200000000080BF040008B5044B02
S214004CC01BB104490448AFF30080BDE80840CDE7B7
S214004CD0000000006C16002080BF0400A3F5803A98
S214004CE0704700BF154B002B08BF114B9D46FFF7C2
S214004CF0F5FF00218B460F461148124A121A14F08F
S214004D001FFE0C4B002B00D098470B4B002B00D0FF
S214004D1098470020002104000D000B4815F056F9B6
S214004D2014F0E6FD200029002EF0C5F815F03CF939
S214004D30000008000000000000000000081000202E
S214004D4008100020145C002035A0010038B500F0E3
S214004D5019FF012805D000F015FF022801D000F049
S214004D6029FF064D2B783BB900F00CFF01280446BE
S214004D7002D12EF097F82C7038BD00BF02560020E6
S214004D8070B50C46088800F0E9FC94F844300546F7
S214004D90834214D004F11C0630462EF01FF884F827
S214004DA044502EF01FF83221A06430462EF011F841
S214004DB094F844100248BDE8704013F0AFBC70BDD4
S214004DC088DC030010B50446008800F0C7FCA37812
S214004DD084F84400834202BF0123E3702371074B2B
S214004DE004F11C00C4E9073400F0AAFD224620881E
S214004DF00349BDE8104000F0C5BC00BFAF2B030060
S214004E00814D000070B5C37804460D461646002B4B
S214004E1032D1C1B11F4813F081FCE36CA6600BB120
S214004E20E06D9847E368F61A63699E4221D2217EB8
S214004E3019480131C9B2217613F070FCA36D13B185
S214004E40217EE06D9847E5702DF0CCFF0DB32379F9
S214004E50FBB9A268238A801A83421AD201230F481C
S214004E60237113F05BFC236D9BB1E06DBDE87040D1
S214004E70184701232376E6E70029E4D1084813F013
S214004E804DFC636DE6602571002BDCD0E06D984725
S214004E90D9E770BDA5DC0300B6DC0300E4DC030044
S214004EA0D1DC0300F8B51E46838804460D46174637
S214004EB00BB18680F8BD817800882DF099FE01231D
S214004EC0E370084BE5802781A680C4E903340C34E0
S214004ED0204600F035FD29462046BDE8F8402DF076
S214004EE078BF00BFFB2B0300816810B5B1FA81F1D3
S214004EF00446490900882DF0F2FEA168A088B1FAA0
S214004F0081F149092DF0EBFE034B1A68A24204BF5B
S214004F1000221A6010BD00BF8416002010B504469B
S214004F200146044813F0FAFB2046BDE81040FFF7A0
S214004F30DBBF00BFFADC0300C36870B50446A3B14C
S214004F4000880E4E04F11005336813B10C4B1B7825
S214004F506BB1217A2DF0C3FE64210A4B34602361C5
S214004F602846BDE870402DF034BF8088E9E7064843
S214004F7013F0D4FB054B32212361F1E784160020A1
S214004F80035600201D4F000013DD0300914F000064
S214004F9010B50446034813F0C1FB2046BDE8104098
S214004FA0FFF7CABF49DD030010B50446E0B10F485D
S214004FB013F0B4FB0123E360636853B9217A2088B9
S214004FC02DF08DFEA36B7BB1E06B0121BDE8104098
S214004FD018472046FFF788FF04F110002DF0FEFE6C
S214004FE02046FFF7A9FFEDE710BD00BF5FDD030019
S214004FF010B50446F8B1104813F090FB0023E360A8
S21400500063686BB9A1682088B1FA81F149092DF06F
S21400501066FEA36B7BB1E06B0021BDE8104018472D
S2140050202046FFF761FF04F110002DF0D7FE204662
S214005030FFF782FFEDE710BD6ADD030010B50446FA
S21400504068B1074813F06AFBE36820461BB1BDE869
S2140050501040FFF7CDBFBDE81040FFF7A5BF10BD5D
S21400506076DD030010B50E4C0E48214613F056FBB5
S21400507082210D4813F052FB82210220A21E00F06E
S21400508019FC014630B134F8022C0848BDE810403F
S21400509013F044BB0648BDE8104013F03FBB00BF0A
S2140050A09A4E002085DD0300A0DD0300ABDD030083
S2140050B0EFDD030038B5104C82212246022000F0B6
S2140050C0E9FBA51C014678B122880C4813F026FBA4
S2140050D02A460B4B03F13C0153F8040B8B4242F873
S2140050E0040BF9D13B23238035F8021C054A0648F9
S2140050F0BDE8384013F012BB984E0020FADD0300DE
S2140051007ADE03009A4E002058DE030010B50446EF
S2140051100146084813F002FB012C074805D12DF084
S214005120C4FDBDE8104000F0F3BEBDE810402DF011
S214005130BEBD00BFB6DE03003C5F002070B5002495
S214005140184D194E3378A34217DC0024174D184E1D
S2140051503378A34217DC0024164D174E3378A3424B
S21400516017DC00F00FFD0128144818D12DF09DFD26
S214005170BDE87040124800F017BD2846FFF722FE33
S21400518001346035DEE728462DF075FD01343435F0
S214005190DEE728462DF0A8FD01344035DEE72DF089
S2140051A086FDE5E75C1D0020075600203C1F00201A
S2140051B0085600201C1C0020065600203C5F0020DD
S2140051C00D5100002DE9F74FFFF774FFB04B01A813
S2140051D001932DF0ADFD054614F0AEFAAD4CC2B20B
S2140051E01F2A627004D9AC4813F098FA00F064FAEB
S2140051F02946A01C14F034FD01A82DF099FD0546A3
S21400520014F09AFAC2B21F2A84F8212001D9A348C2
S214005210EAE7294604F1220014F022FD01A82DF049
S21400522087FD002604462578002D59D1DFF8A89280
S2140052309B4FFFF783FF99F800203978994813F0C1
S2140052406DFA99F800303E78DFF860B21E44F6B288
S214005250012E38BF01265B46DA464FF482714FF6C0
S214005260FF720135AE421D7059809A8003F10C031F
S214005270F7DC00258C4C8D498648CAF8084000F0BB
S2140052803DFD9AF80700DAF8083000EB400003EB23
S214005290800000F049FB9AF80730DFF81C820133E3
S2140052A08AF807303B78AB4200F37D8100254FF04B
S2140052B00C08DFF820B299F80010A94200F38681A6
S2140052C031467A4800F09EFB019B71491A468B4294
S2140052D040F09781764803B0BDE8F04F13F01EBA51
S2140052E0532D0FD163784C2B40F0F880A378502BC9
S2140052F040F0F48001226F4B1A7001A82DF018FDC3
S214005300044690E72AD8412DF7D9423D102DF4D80F
S21400531001A353F825F000BF89530000FB5200009C
S214005320FB520000FB520000FB520000FB52000044
S214005330FB5200000F540000FB520000FB5200001E
S214005340C55300006F530000FB520000FB520000E4
S214005350FB520000FB52000047550000692DCCD1DF
S214005360601C2DF0F2FC80B22DF025FDC5E74C4BFD
S214005370012019780023504A994202F1A402BCDDAC
S21400538002F8A20C0133F7E7601C00F06BFA054642
S214005390E01C2DF0F9FC01210246284600F098F9A1
S2140053A060224648464C03785A43A118A5524FF44B
S2140053B0FA620A824FF448724A61424A01330A6529
S2140053C003709AE7601C00F04DFA002234268146EE
S2140053D03D4F114600F07CF938783C4D06FB00F353
S2140053E025F80390EA18E3781046693B18BF0123B6
S2140053F093702DF040FC3B78002103FB06550126F8
S214005400334A33441560516016743B7075E7601C70
S21400541000F028FA00221146814600F059F934229D
S214005420294D2A4F287802FB00F327F80390F91835
S214005430E3780846693B18BF01238B702DF01BFCF0
S214005440244A00231146906BB8B901EB831134232C
S2140054502A7802FB03738B635EB91D4A33461146F6
S21400546052F8040B78B93422287800FB027241F80F
S21400547023202B7801332B703FE70133042B02F1F6
S2140054804002E0D1E8E70133042BE9D1F1E700BFA1
S2140054909A4E00205C5E0020D5DE0300ECDE0300A2
S2140054A005560020FCDE03000017002088160020AA
S2140054B031DF030003560020801900200756002025
S2140054C05C1D00201B2D0300085600203C1F0020FA
S2140054D03C5F00208018002004560020601C00F06E
S2140054E0C1F90746E01C2DF04FFC01210246384664
S2140054F000F0EEF86023474D474C2A78A42053432B
S214005500E118E7524FF44873444F0B824B613B78E7
S214005510DFF820C158430CEB00010CF800304FF4C4
S2140055200070488003200871887102EB420004EB8B
S214005530401432200133DBB201324B718C6081F8AB
S214005540A0002A7061E7601C00F08CF900228146FA
S214005550334F114600F0BCF83B78324D9A0145F8BF
S2140055600290012205EB83139A60E3785BB1E01C9E
S21400557000F078F900220446114600F0A9F83B78BE
S21400558005EB83135C602849284A0B789C0102EBE4
S214005590831013553A78013305EB821501324563C3
S2140055A03A700B70A9E63DB11BF8053C03EB4303CC
S2140055B004EB8304CBF808405946404600F026FF2B
S2140055C0013508F1A4080BF10C0B6BE63978294479
S2140055D0481E08FB00A008FB01A1C07900EB4000B4
S2140055E004EB800458468C6000F022FD39781048A1
S2140055F0294408FB01A100F071FC01350BF1400BBA
S21400560059E613F8011D00297FF45FAE3B2102F82E
S214005610011C5AE6075600205C1D00200556002097
S214005620065600201C1C002004560020801800206F
S214005630101C00208019002007B5022101200DF162
S214005640060200F027F938B9044813F067F8BDF8E9
S214005650060003B05DF804FB0020FAE74EDF030007
S21400566007B50221ADF806000DF10602012000F094
S21400567021F9014610B1034813F050F803B05DF865
S21400568004FB00BF6FDF030010B5FFF7D5FF04462D
S2140056900146074813F042F80121064813F03EF889
S2140056A024B9BDE810400120FFF7DABF10BD00BFE7
S2140056B09FDF0300B1DF030008B5044813F02EF89F
S2140056C000F008F92DF07BFB2DF076FBC7DF03001A
S2140056D00B460E4910B40446087808B90120087035
S2140056E00B48210A405CE1B273B1012A04D0032AB8
S2140056F008D00023012201E0134602225DF8044B85
S21400570003F00ABF0023F8E70422F7E70A56002052
S214005710A27404003021074A030AD35C01224B43DB
S21400572041F21001C0B203F1A043824003F570338A
S2140057305A507047A27404003021074A030AD35C0B
S21400574001224B4342F21001C0B203F1A043824053
S21400575003F570335A507047A2740400084A030ACF
S214005760D15C1422302313FB012303F1A04303F57D
S21400577070331B68C0B223FA00F000F001007047D7
S214005780A27404002DE9F04F304B8B461978824600
S21400579085B009B9012119702D4C23782BB90392D5
S2140057A02DF017FD0123039A23702A494FEA1A2386
S2140057B0CF5C00243021284D5FFA8AF801FB04F301
S2140057C0E85C00283BD10121E4B2E954302604EB22
S2140057D0440005EB0019484606FB04531F491030E9
S2140057E0C3E902B2A3F802A008F0A4FB414638467B
S2140057F003F0D2FE022827D1102316FB073303F14D
S214005800A04303F570331B6823FA08F313F0010F67
S21400581014BF01230323302202FB045520464A46C8
S2140058200F492B712DF0D7FC0123224641463846FE
S214005830CDE9003303F02AFE05B0BDE8F08F013451
S214005840102CBBD1FF24C1E70023E4E70A56002052
S21400585009560020A274040040200020692D030091
S2140058607B2D030080B10278A2F14103032B0BD8F5
S21400587040783038C0B2082806D8054B134413F8D1
S214005880413C40EA032070474FF6FF70704700BF68
S214005890A274040008B50B4642B1014604480068ED
S2140058A002F0BEFCBDE808402DF07FBA022008BD1D
S2140058B0D05F002008B50B4642B101460448006898
S2140058C002F036FEBDE808402DF06FBA022008BD93
S2140058D0D05F0020F0B50026124F8DB0FF23009356
S2140058E00A223346386802A92DF08CFFC0B102ABFD
S2140058F01D4603EB800404E055F8043BB34228BF82
S2140059005E1CAC423868E9D9296802F097FF002887
S214005910F2D02D28F0D00DB0BDE8F0402DF045BAFD
S2140059200DB0F0BDD05F002028B1034B0360034BE1
S214005930436000238360704719000003505F002017
S214005940FF2307B50021044A0093083008F076FAD2
S21400595003B05DF804FB00BFCD2D03000B460449E1
S214005960024608680349097808B12DF042BA704724
S214005970482300200C560020F8B50C4618B122210A
S2140059800E4837F063FF246823685E795F883046E8
S2140059903946FFF7E3FF08B98120F8BD8568002D7A
S2140059A0FAD0A368E27C3046F9B2A847044600283D
S2140059B0F2D131F05FFA2046EFE700BFD4DF0300F4
S2140059C0F8B515460D4A044610680D4A0B46117880
S2140059D050B122462DF00DFA034628B100210C27BF
S2140059E0C678B14201DB0020F8BD07FB01F45A6817
S2140059F01019125BAA42F7D00131F2E748230020C3
S214005A000C5600202DE9F74F04460D460026454B60
S214005A10454F1860454B197033010021F85C01367C
S214005A200EF0F0FE0C2EF7D10C2D28BF0C254FF0F3
S214005A30000901953C4EDFF800A13D4DDFF8FC80E3
S214005A40019B4B4502DC03B0BDE8F08F23784FF096
S214005A50000B337063887380A388B380A379C6F87D
S214005A600880B371E379C8F8005088F804304FF026
S214005A700003A768A8F80630E3795B450ADC012135
S214005A8016F8100B0EF0BEFE08F1080809F1010921
S214005A900C34D5E74FF0000338886B812880FB78FC
S214005AA04FF0000C2B81BA78C5F804A0002A0092AB
S214005AB00CBF802240222A7379680AF10C026345E3
S214005AC013DC03EB43030AEB830ABB6843B1009A7B
S214005AD04FF6FF71B2FA82F2164B520931F05AF9BC
S214005AE014350BF1010B0C37C6E7B1F800E00CF1EA
S214005AF0010C22F80CEC91F802E00C3202F816ECDD
S214005B0091F804E00C3102F815EC11F809ECBEF13E
S214005B10010F14BF4FF0100E4FF0110E02F814ECE8
S214005B20CDE700BF482300209C3900200C560020FB
S214005B304C290020795900004C230020CC2B002053
S214005B40014B1860704700BF4423002070B51288D0
S214005B5005460E46FFF734FF044670B102790499F5
S214005B60806813F03FFF064B1B680BB9002070BD22
S214005B7028462288F1B29847F8E78620F7E700BF64
S214005B804423002008B50DF075FF022806D0012832
S214005B9006D0044B18784000C0B208BD0120FCE7D0
S214005BA00220FAE70B560020014B1860704700BF32
S214005BB040230020034B1A781AB901221A700AF003
S214005BC035B870470B5600200022064B10B51A70E9
S214005BD0054B1C682CB1FFF7D5FF2346BDE81040E7
S214005BE0184710BD0B5600204023002037B504464A
S214005BF0002832D00DF03EFF022830D1608931F007
S214005C00B6FCE079237A003818BF0120012B637AAE
S214005C1008BF40F008000BB140F0100063890BB1DC
S214005C2040F00400257CA188A2790DB1E36873B921
S214005C300C4B0FF045F9217808460FF0BDF930F00F
S214005C40A0FF002814BF0320002003B030BDCDE91C
S214005C500035054B0FF034F9EDE70220F5E701209B
S214005C60F3E700BFB12B040050FB0300034B044ACC
S214005C705B7C012103201370FFF71CBE3C5F0020F5
S214005C800D56002010B50446FFF7F0FFB4F57F4F21
S214005C9010D10D4B1A88134400229A70FFF7E2F9D0
S214005CA00A48FFF74DFEBDE810404FF496710748CE
S214005CB02DF08FB84FF601739C4204D1BDE810401A
S214005CC003482CF0DABF10BD984E0020745F002009
S214005CD03C5F002010B5074C012122460320FFF749
S214005CE0D9FD28B92378044A003B18BF0123537412
S214005CF010BD00BF0D5600203C5F00200822F8B5FE
S214005D004B4B36241A70322230255A70DA70DA710C
S214005D104FF400121C711C72464C9D70C464464CB5
S214005D205D710465454C31258465454C4264C46507
S214005D30444C01224466444C9D718466434C85184D
S214005D400467434CC5674467202480F8784080F891
S214005D50844000F12104C0F888403E4C3E4DC0F817
S214005D608C403E4CC0F88050C0F894403C4C80F8C4
S214005D704820C0F8984080F854203A4C80F86020BC
S214005D8080F86C2080F8902080F89C20C0F8B8300E
S214005D90354BC0F8A440C0F8BC300F24022380F86E
S214005DA0A84080F8C030314C314BC0F8AC40C0F849
S214005DB0C430304C304BC0F8B040C0F8C83009246E
S214005DC082232E4D80F8B44080F8CC302C7C2C4BAF
S214005DD0C0F8A000C0F8D03044B12A4B80F8D820D4
S214005DE0C0F8D43005F11103C0F8DC304FF0000CD9
S214005DF0CA798E6802EB42039F00443006EB8303A9
S214005E0026F807C0586001200C349870DC70131810
S214005E10CB71FFF75FFFFFF7B5FE012806D12B7C9D
S214005E2023B1BDE8F84015482CF027BFF8BD00BFE9
S214005E300E560020BC74040001002000BB74040051
S214005E4002002000BA74040003002000B9740400A5
S214005E50040042000700300005004200B874040049
S214005E601200100100404200FDFF2100A67404004D
S214005E70B67404000600420000FF44013C5F0020A8
S214005E80984E002001FF100170B50D4606461446D8
S214005E9013460A4601460D4812F040FC25B9204636
S214005EA0BDE87040FFF7EEBE072D05D1214630460F
S214005EB0BDE8704000F070BA062D05D12146304688
S214005EC0BDE8704000F06EB870BD00BF46E003004D
S214005ED00148FFF735BE00BF895E00004FF4C013CF
S214005EE030B5036001230371074B8C688360CA7961
S214005EF002EB420304EB83056860044844F8230081
S214005F00531CCB7130BD00BFBD74040004000101FA
S214005F1038B50024044D55F8040B08B12CF0E0FF0A
S214005F2001340A2CF7D138BD2C2C00200229024659
S214005F3008B50ED004D839B910462CF0FCFF06E0A0
S214005F404029F9D0412907D110462CF0EAFF00205D
S214005F5008BD2CF0FAFFFAE7014812F0DFFBF6E77F
S214005F6079E0030011461A46024B53F82000FFF76B
S214005F70DDBF00BF2C2C0020426B094BD2681A7084
S214005F8082785A70C2789A70826B12B190F83C2070
S214005F90DA70007804210930014AC0B2FFF78ABCE3
S214005FA017560020024B53F820002CF0EABF00BF23
S214005FB02C2C002038B504460078084D09302A46B7
S214005FC00421C0B2FFF766FC30B96B78A370AB78DB
S214005FD0E370EB7884F83C3038BD00BF17560020DD
S214005FE038B504460078114D09302A460421C0B25F
S214005FF0FFF750FCC8B9A3782A78022B0CD004D837
S21400600063B920462CF097FF01E0FF2B0AD020460C
S214006010BDE838402CF064BF002AF2D120462CF0B0
S21400602080FFF4E7002AF9D1EBE738BD17560020C9
S214006030F8B504460B78224A0D4642F82300437012
S214006040FFF7B8FF636B1F4ADC639A632046FFF7CF
S214006050C7FF20462CF044FF4FF4801363600423F0
S2140060602372636BA06B0C33E360174BA21C236197
S2140060700123A261237560B1144A84F82030E261DE
S214006080E21C6262124A84F82C3004F13C03A262DD
S21400609023630627E979AE6801EB4103002826F85A
S2140060A0237006EB83020CBF02230423D370012364
S2140060B09370084B043493604B1C5460EB71F8BD2E
S2140060C02C2C00205F2F03000340300101FF30011D
S2140060D002FF1001655F000002464179D378084848
S2140060E00139042B00EB811008D8012B04D80BB91A
S2140060F02CF017BF2CF01FBF2CF027BF704700BF37
S2140061008018002002464179D37808480139042BCC
S21400611000EB811008D8012B04D80BB92CF00BBF6C
S2140061202CF0FFBE2CF011BF704700BF8018002077
S21400613030B587B004464579FFF724FD012822D103
S214006140E2786B1E042A1ED8DFE802F00431031F33
S2140061502800104663784FF480728DF804304FF4B0
S2140061608273ADF806300623ADF8083001238DF8AB
S2140061700B3000238DF80A0001A8CDE903238DF823
S2140061801430FFF733FD07B030BD0A4A02EB831325
S2140061905B6BD868003818BF0120DBE7054A02EBC6
S2140061A083135B6BD868B0FA80F04009D2E7002012
S2140061B0D0E700BF8018002030B587B00446457988
S2140061C0FFF7E0FC012829D1E3786A1E042B25D8C6
S2140061D0DFE803F00B0B0B032600164B03EB8213D2
S2140061E05B6BDB68003B18BF012362788DF80A30D2
S2140061F08DF804204FF482720123ADF806200622A3
S2140062008DF80B30ADF8082000234FF4807201A8FB
S214006210CDE903238DF81430FFF7E8FC07B030BD56
S214006220044B03EB82135B6BDB68B3FA83F35B0907
S214006230DBE700BF8018002010B586B00446FFF7E5
S214006240A1FC012812D16378094A8DF804304FF476
S2140062508273ADF806304FF48073CDE90223002335
S21400626001A804938DF81430FFF7C0FC06B010BDEB
S2140062700800070110B586B00446FFF783FC012826
S21400628020D16278104B8DF804204FF4827294F877
S214006290A01094F8A10059701870ADF80620049369
S2140062A04FF480720223094901A88DF81430CDE915
S2140062B00212FFF79BFC94F8A130013B18BF0123A4
S2140062C084F8A13006B010BD1B560020080005015A
S2140062D010B583780446E3B10379022B06D14379DF
S2140062E00C48013B00EB83102CF02FFEA379022B09
S2140062F002D12046FFF71CFF2046FFF7BBFF022314
S2140063006078A4F86C305522BDE8104012212CF0BD
S21400631092BD10BD801800204388094A08211380CA
S2140063208388538083681B8A938090F8A03093718B
S2140063308379D37100780430C0B2FFF7BBBA00BFD0
S2140063401A4F002038B50D4604460178104812F062
S214006350E5F94FF602739D420CD163791BB10D4AE5
S21400636012789A4201D2012363712046BDE8384074
S214006370FFF7D2BFB5F57F4FF7D120462CF063FE6E
S214006380A378022B0CBF01220022A3689A70ECE7C8
S2140063908FE0030004560020024B53F82000FFF75E
S2140063A0D1BF00BF542C002038B504460078134DEA
S2140063B004302A460821C0B2FFF76CFA20B1BDE8C7
S2140063C038400F4812F0AAB92B8863806B88E978AA
S2140063D0A380AA88A3681A82AB7984F8A030EB79E8
S2140063E0A37119B1074B1B788B4205D2064812F0F1
S2140063F095F923780133637138BD00BF1A4F00202A
S214006400A9E0030004560020D2E00300F8B50446D5
S2140064100B78484A0D4642F823004370FFF7C4FF46
S214006420A268454B0226D364444BA11C5365444BDB
S21400643044481365444B04F10C0CC2E916344FF47F
S2140064404013E36001236161E16240491032216339
S2140064502265211D3E4AA1633E49626504F1A00201
S214006460A061E163E265E01C611D3B4A2062616455
S2140064703A483B492266A21D2374237784F82830C5
S21400648084F8343084F84030A16484F84C6084F892
S214006490583084F864306062A266E879AA6800EB37
S2140064A0400102EB8107C7F804C04FF0060C2D4FE1
S2140064B042F82170C118C9B201EB410142F821C06F
S2140064C002EB810700217960274F84F88030276728
S2140064D0264F84F89830A767254F264BE767264F48
S2140064E084F8746084F88C60C4F89C3004F16C0600
S2140064F0831CC4F88470C4F89060204F204EDBB232
S21400650003EB4303C4F89460C4F8887002EB830678
S2140065107034746008261B4C42F82340C31CDBB260
S21400652003EB430302EB8304043042F8236061600C
S214006530E871F8BD542C0020B32F0300F52F03009C
S214006540D162000010003001A92F030001FF3001C6
S21400655004FF200102FF200105FF300100FF30018B
S21400656003FF2101070001084A002100BE74040051
S21400657051001000C0740400C174040055002100CE
S2140065806F0018001200010400239B6AB3F5804FC9
S21400659003D21968064A914203D000230370836031
S2140065A07047012202709A689B694260F7E700BF55
S2140065B007B0CD5E024B034A1A602EF0F1B800BF5A
S2140065C00000002002020FF073B53F4B04461A7815
S2140065D01AB102221A7002B070BDCDE9002200285E
S2140065E0F9D001261E7037F03FF8384D384B18604A
S2140065F016F076FE2B785BB902F0C4F940B9354840
S2140066000823354A3549006801F00AFE00B92E70A5
S214006610334B5A68E260334A9A601A6E22605A6EAA
S2140066206260D3F87021A2601B6E5C042CD52E4AE3
S214006630D368D807FCD42D4B1A68531C29D04FF4C6
S214006640801393402A4A13660423294C4FF0804255
S21400665023664FF480632366102323664FF40053AB
S2140066606846236601A9226663662CF004FD009B3B
S2140066702366019B63662B78002BACD0164B1A68FA
S21400668022665B686366A6E71A4AD368D907FCD415
S214006690D1E7194B1B78002BD6D1184B5A68144BF0
S2140066A012B94FF480121A66154A526812B94FF49E
S2140066B000121A66134B5B68002BC5D14FF480029C
S2140066C00B4B1A66C0E700BF1E5600201F56002060
S2140066D08C2C0020D05F0020902C00200071080039
S2140066E00080004455CEAC00000004409C5F0020B3
S2140066F000900044000004501D5600200080055005
S21400670000C005500000065038B5224D04462B78D0
S214006710012B02D001232B7038BD0028FCD02CF0B2
S214006720CFFC013009D02CF0CBFC40F2011398428C
S21400673003D0194AD368DB07FCD42268174B1A66C5
S21400674062685A66A268C3F87021E268D40744BF3C
S21400675000229A60124B1A68013213D1114A12783D
S21400676082B911494968C80748BF1A600F4A52687B
S214006770D10744BF01221A600D4A5268D20744BFAF
S21400678002221A6016F0B4FD0A4B186836F067FF4E
S2140067900023C0E71E56002000000440008000448E
S2140067A09C5F00201D5600200080055000C005504C
S2140067B0000006508C2C002070B50024A36AB3F5A8
S2140067C0804F23D21A68134B9A421FD1124E337849
S2140067D013F0FD0518D14FF480341048FFF7F4FE8F
S2140067E0032004F033FA0E4B0320DC6004F012FAA8
S2140067F00C4B1C61AB6ADB69984704460748FFF7F9
S21400680083FF0CB901233370204670BD4FF48174AA
S214006810FAE700BF07B0CD5E1D5600207C2C002096
S21400682000A000440090004413B5204B1B7803B929
S214006830FEE700231E4CCDE900336A4608231D49B7
S214006840206801F0EDFCF8B91B4AD2F84031D2F8C6
S21400685040211F2B4FF0010311D9203A9340019A93
S2140068601A43019208236A461249206801F060FE26
S214006870124B134A1A602DF093FF02B010BD9340DE
S214006880009A1A430092EDE72D28F1D10A4AD2F871
S2140068904031D2F840211F2B4FF0010385BF203A2C
S2140068A093409340019398BF0093DBE71E56002069
S2140068B0D05F002000710800008000440000002027
S2140068C00B020FF038B50025AB6A0446B3F5804FCF
S2140068D010D21B6BB3F5804F0CD20748FFF774FE3F
S2140068E0AB6A20461B6B5B689847BDE83840024899
S2140068F0FFF70ABF38BD00BF982C002013B5002450
S214006900A36A0190B3F5804F13D21B6BB3F5804F8B
S2140069100FD20948FFF758FEA36A01211B6B01A896
S2140069209B69984704460448FFF7EEFE204602B0EF
S21400693010BD4FF48174F9E7982C002070B500263E
S214006940B36A0446B3F5804F0D4612D21B6BB3F5FF
S214006950804F0ED20848FFF737FEB36A20461B6BFF
S21400696029469B69984704460348FFF7CDFE204614
S21400697070BD4FF48174FAE7982C002070B500269D
S214006980B36A0446B3F5804F0D4612D21B6BB3F5BF
S214006990804F0ED20848FFF717FEB36A20461B6BDF
S2140069A02946DB69984704460348FFF7ADFE2046B4
S2140069B070BD4FF48174FAE7982C0020F8B50027D4
S2140069C0BB6A0446B3F5804F0D46164611D21B6BC4
S2140069D07BB10948FFF7F8FDBB6A20461B6B3246C1
S2140069E029465B6A984704460348FFF78DFE204613
S2140069F0F8BD4FF40174FAE7982C002070B5002615
S214006A00B36A0446B3F5804F0D4612D21B6BB3F53E
S214006A10804F0ED20848FFF7D7FDB36A20461B6B9F
S214006A2029469B6A984704460348FFF76DFE2046B2
S214006A3070BD4FF40174FAE7982C0020F0B50027DB
S214006A40BB6A0446B3F5804F0D461646ADF5337D5A
S214006A5020D21B6BB3F5804F1CD21048FFF7B4FD55
S214006A60BB6A20461B6B40F2C1225B6A01A99847AD
S214006A70044630B10948FFF747FE20460DF5337D42
S214006A80F0BD836A32461B6B2946DB6A01A898472D
S214006A900446EFE74FF40174EFE700BF982C0020A0
S214006AA010B50024A36AB3F5804F10D21B6BB3F564
S214006AB0804F0CD20748FFF787FDA36A1B6B1B6B42
S214006AC0984704460348FFF71FFE204610BD0124E2
S214006AD0FBE700BF982C0020F0B58FB0044601A855
S214006AE00E461546FFF7EEFE9DF80C30012B12D130
S214006AF0B5F5402F27D8B4F5402F24D86319B3F541
S214006B00402F20D821462A46304613F0A9F8002404
S214006B1020460FB0F0BD0027BB6AB3F5804F15D2F4
S214006B201B6BB3F5804F11D20A48FFF74DFDBB6AC9
S214006B302A461B6B314620465B6B98470446054841
S214006B40FFF7E2FDE4E740F20244E1E740F2011419
S214006B50DEE700BF982C0020F0B58FB0044601A8F1
S214006B600E461546FFF7AEFE9DF80C30012B1FD1E2
S214006B70B5F5402F06D8B4F5402F03D86319B3F502
S214006B80402F13D940F2024420460FB0F0BDE25821
S214006B90013225D104339D42F9D82A463146204693
S214006BA02CF0BEFA0028EDD00024EDE70023F2E733
S214006BB00027BB6AB3F5804F15D21B6BB3F5804F29
S214006BC011D20A48FFF700FDBB6A2A461B6B314606
S214006BD020469B6B984704460448FFF795FDD3E78D
S214006BE040F20344D0E740F20114CDE7982C002091
S214006BF070B58EB0044601A80D46FFF763FE9DF8FB
S214006C000C30012B22D144EA0503C3F30C03002BFE
S214006C1033D1B5F5402F04D940F2024420460EB0D9
S214006C2070BDB4F5402FF7D82544B5F5402FF3D8FE
S214006C30204604F500542CF06CFAAC4202D0002832
S214006C40F6D1E9E70028E7D00024E7E70026B36A94
S214006C50B3F5804F14D21B6BB3F5804F10D20A48A1
S214006C60FFF7B2FCB36A29461B6B2046DB6B9847DE
S214006C7004460548FFF748FDD0E740F20444CDE758
S214006C8040F20114CAE700BF982C0020BFF34F8FD4
S214006C900549064BCA6802F4E0621343CB60BFF3B3
S214006CA04F8F00BFFDE700BF00ED00E00400FA05CF
S214006CB070B5D0B1C9B10E4E431E013913F8014F5D
S214006CC02046325D02F00302012A11F8012F08BFA8
S214006CD004F12000B55C05F00305012D08BF203245
S214006CE0801A01D1002CE9D170BD0120FCE700BF5D
S214006CF0C99A04000348044A0449121A92102CF058
S214006D005BBA00BF34410000D0420000B05C0020F7
S214006D1008B5154B83F30A8800F030F8FFF7EAFF52
S214006D20124B13498B4212D30020124B12498B424E
S214006D3018D3FDF7D7FF186850F82240586840F877
S214006D402240013298688242F5D30C33EAE70022EB
S214006D50F8E71C6844F8220001325C68A242F8D3C7
S214006D600833E4E70022F8E70800002088BF0400A4
S214006D7094BF040094BF040094BF0400124B134A4F
S214006D8070B59A60D3F88820114D42F47002C3F8AB
S214006D9088206FF0010205F50054226641F2FF726A
S214006DA062660222C3F8D020BFF34F8FBFF36F8F07
S214006DB04FF44036032003F049FF0320E66003F05B
S214006DC029FF2E6170BD00BF00ED00E0004000000E
S214006DD000800044014B1860704700BFA45F00208D
S214006DE0054B1860054B1B6F03F00703032B01D1FF
S214006DF034F0ECBC704700BFAC5F00200080005051
S214006E002DE9F04104464FF001080C250D4E0CB953
S214006E10BDE8F08194FAA4F0B0FA80F00F2808FAE2
S214006E2000F2C8BF103824EA0204CABF05FB00629D
S214006E3005FB0062B4325768002FE8D09168C0B2F4
S214006E40B847E4E7A82C002008B50C4836F0AAFCA2
S214006E50192003F0EDFE28B1192003F0F7FE1920E3
S214006E6003F0D8FE1A2003F0E3FE28B11A2003F040
S214006E70EDFE1A2003F0CEFE002008BD20770400A9
S214006E802DE9F0410E461746054618B30F2923D8BC
S214006E900378DBB1013BDBB2022B19D8104AD35C76
S214006EA06A78D340DB0717D50E4BD3F81043ACB93E
S214006EB036F0DAFB80463A462846314602F026FC93
S214006EC0404636F0CCFB2046BDE8F0817F23E7E75E
S214006ED00023E5E72224F6E72124F4E70224F2E77C
S214006EE01475040000C0035010B5044610B30378B0
S214006EF0E3B1013BDBB2022B1AD8104AD35C6278AE
S214006F00D340DB0718D536F0AFFB01226178237833
S214006F108A4030214B4341F2100103F1A04303F5B0
S214006F2070335A5036F09BFB002010BD7F23E6E7F7
S214006F300023E4E72220F8E72120F6E71475040092
S214006F4010B5044610B30378E3B1013BDBB2022B65
S214006F501AD8104AD35C6278D340DB0718D536F0CF
S214006F6083FB0122617823788A4030214B4342F22A
S214006F70100103F1A04303F570335A5036F06FFB4F
S214006F80002010BD7F23E6E70023E4E72220F8E791
S214006F902120F6E7147504002DE9F0410D4616464B
S214006FA09846044600284FD000294DD00178002985
S214006FB040D04B1EDBB2022B3ED8254AD25C63780B
S214006FC0DA40D20701D4FF2940D1022E01D9042E7F
S214006FD03CD136F049FB23780746FF2B05D03246D6
S214006FE02046296802F0D8FB28602B68013309D1B7
S214006FF02378FF2B06D1174B6078D3F824142CF097
S2140070003FFE286029684B1C18D00C23124A03FB4D
S2140070100122069BC2F8048093602378FF2B04D0DD
S21400702001230E4A8B40C2F82434384636F017FB4C
S214007030002007E07F22C2E70022C0E7384636F08D
S2140070400EFB2D20BDE8F0812220FBE72120F9E78A
S2140070501475040000C00350A82C002000D0035074
S21400706008B502F049FB044B00F05530C3F8200485
S214007070BDE80840FFF7C4BE00E0035008B502F0C4
S2140070803BFB044B00F0AA30C3F82004BDE80840E0
S214007090FFF7B6BE00E003502DE9F04F1446054654
S2140070A00E469B46C36B87B001225B6902A96068E7
S2140070B09847EB6B01225B6903A93046984702A804
S2140070C02CF08FFC074648B10023A37563754FF07C
S2140070D0FF33A360002007B0BDE8F08F03A82CF0B4
S2140070E08DFC0123A375237E04EBC303DE611F849E
S2140070F06368B3420ED1206003A82CF0A1FC4FF0C9
S214007100FF332075A360237D043B022B26D8002383
S214007110A375DFE723681A1A53425341A37503A8E1
S2140071202CF08EFC237D834218BFA77503A82CF095
S21400713069FC074602A82CF065FC874218BF0023AE
S21400714003A818BFA3752CF065FC074602A82CF010
S21400715061FC87421CBF0023A375D4E703A82CF06C
S21400716051FC80B1EB6B022230465B6904A998475C
S21400717004A82CF056FC0346207D032839D8DFE807
S21400718000F03838040903A8F3E7CC22237E04EB8A
S214007190C3031A8401F06EFC109B187003A8277EA8
S2140071A02CF024FC04EBC70787F82200237E03A8F4
S2140071B004EBC303B3F8209093F822702CF022FC63
S2140071C0804603A82CF026FC8246B8F1000F15D0A6
S2140071D0EB6B022230465B6904A9984704A82CF0A2
S2140071E0E5FB6075637D6BB90023A3754FF000085F
S2140071F038E0227E04EBC2021384CBE703A82CF00F
S214007200C0FBEEE794F81680B8F1000FEED0B9F1A7
S214007210000F09D1DFB10123E375637E002B4FD148
S214007220012F42D1677614E06B6C06EB0A015A42D6
S21400723086EA010010421CBF0022A2755A1E0A40B0
S2140072409B1A9945D0D8A37D002BE3D1CEE7E37DEA
S21400725043B94FF000084B465246314628462CF0BC
S2140072600BF9A060A27D12B123694B4423611A4931
S214007270237E097899422AD901332376BBF1000F81
S21400728027D032B3E37D23B3B8F1000F21D1032F0B
S2140072901FD0A1684B1C1CD0109B2246009328468A
S2140072A00123FFF7F9FEA07513E095F8343063B9B3
S2140072B0EB6A0133CFD1032FCDD10123A376C8E7E4
S2140072C0012FCFD0032FC4D1F7E79846C3E700239A
S2140072D0A375A07DFFE600BF387504002DE9F04FCA
S2140072E00E46984600238BB004464FF0FF311046FA
S2140072F017468DF8133001F0A7FBB6F5801F20D295
S214007300314605AA04F108002CF0BDFA451C0146DA
S21400731003D1237CBBB92D2010E0384601F094FB46
S2140073200122394620460DF113032CF0F7F8002809
S214007330EFD09DF8133088F8003000200BB0BDE881
S214007340F08FB01CE5D1E56A691C36D12046616A2B
S2140073502BF0D8FF0546B31C18BF0123DFF8CC90EE
S2140073600193636A626C0293236805A902FB053ADF
S214007370E36B05225B695046984705A82CF0CCFBCA
S2140073802CF0EFFB50462CF0F7FB4FF0000B82463C
S21400739001464B1C05D0636C81EA0A025B4213422D
S2140073A011D0294620462BF0ADFF029BAB422CD0D5
S2140073B0BBF1000F2CD10546D3E72368ED1A636CAA
S2140073C0B5FBF3F5C7E7484601F03EFB0DF11303A6
S2140073D049462046019A2CF0A1F8034690B1B21C0B
S2140073E003D0D9F80020B2420CD19DF813200393A5
S2140073F00D4B88F8002049461A68384612F030FCD3
S214007400039B9B46D9F80810C3E7BBF1000F82D058
S214007410B6F5801F91D2314698F800307A6804F1AC
S214007420080001F03FFA88E7347504008434002031
S2140074302DE9F3410446174698460E46184D816AD4
S214007440E36A8B4201D04B1C02D102B0BDE8F0814A
S214007450284601F0F9FA0122294620460DF10703D5
S2140074602CF05CF838B14346294620469DF80720A4
S214007470B8470028E9D0A9684A1C04D169682046A4
S2140074802BF0CDFF0146012EDAD16B6881EA0302AC
S214007490636C5B421A4218BF4FF0FF31D0E700BF63
S2140074A0583400202DE9F04F4FF0FF334FF6FF72AF
S2140074B00025044600F10806C0E909238BB0C36224
S2140074C005620563304688462CF0AEF920462BF060
S2140074D0E9FE60BB204641462BF064FF20462BF0B9
S2140074E0E1FE60BB5E200BB0BDE8F08F2368E26B68
S2140074F0606C576900FB0530052205A9B84705A84A
S2140075002CF00AFB012807460CD1294620462BF012
S2140075101AFF012F024600D10132294620462BF0E1
S214007520E0FE03E02CF022FB0028EED10135E369F3
S2140075309D42DBD320462BF0B5FE0028CAD000259E
S2140075404FF0FF394FF6FF73CA46A846C4E9085302
S214007550E36998450AD3A5EB0905012D2CD84FF60B
S214007560FF72636A93423CD16720BCE72368E26BF4
S214007570606C576900FB0830052205A9B84705A8C6
S2140075802CF0CAFA834605A82CF09DFA0746584602
S2140075902CF0E7FA68B1574538BFC4F82480B945DF
S2140075A028BFB946BD4238BF3D46BA46236A0133B6
S2140075B0236208F10108CBE74FF6FF7300256362EC
S2140075C0E3699D42CBD2676C2068E36B052207FB1C
S2140075D005005B6905A9984705A82CF074FA0135E3
S2140075E0EEE7E26B676C2068694607FB03005569A7
S2140075F00522A84768462CF066FA626A2368606C23
S2140076004B4D00FB02302CF0B7FA4FF0FF33A06270
S214007610E3622A466FF00101204605ABFFF75EFEE7
S214007620002846D1AD6829462046E5622BF016FEB6
S214007630206320B92046E16A2BF0F1FEE06229467D
S21400764020462BF0ECFE0546A36A9D4233D1204629
S2140076502BF0D7FD00278046B946E36999453CD311
S214007660B84559D92046616A2BF04CFE00260546DF
S21400767004F1400AB74212D8626C2368694602FBDE
S2140076800539E36B05225B694846984768462CF047
S2140076901AFA534602464946E06B2CF06FFA294622
S2140076A020462BF02FFE0136B0450546E2D1642079
S2140076B019E7A56AB7E7294620462BF0CFFD236BCE
S2140076C0294603440746236320462BF0A8FE0546BA
S2140076D0002FB9D1C4E90B07B6E7636C256805220D
S2140076E003FB0955E36B05A95B692846984705A87F
S2140076F02CF012FA2CF035FA58B128462CF03CFA49
S214007700014620462BF0AAFD636C143B984208BF46
S214007710013709F10109A0E730462CF085F800236F
S21400772020461946034AFFF783FE0020DBE600BF2B
S214007730B03400200B3503002DE9F041036B904672
S214007740826B07689A4288BF8363426C436A90B034
S21400775002FB0377C36B0E46052201A95B6904464C
S2140077603846984701A82CF0D7F901280146307012
S21400777057D0656CE26B2368606AD2F814C005FBCC
S2140077800030052206A9E04706A82CF0C5F9012816
S2140077904FF0000523D0D4E90A3201219342CDE907
S2140077A00B458DF834800E958DF83C102AD119467D
S2140077B020462BF034FE236B626C14339B1AE06277
S2140077C023630C9B53B99DF83C303BB1626A616CF5
S2140077D02368E06B01FB02312CF056F90C9DE36B3D
S2140077E005225B6901A93846984701A82CF094F950
S2140077F030702846236BA26B9A4288BFA36310B0F2
S214007800BDE8F081237C33B91C490BAA04F10800BB
S21400781001F096F8D5E72046194A0BABFFF708FEAD
S214007820CFE7237C23BB2246164904F1080001F06B
S21400783087F8616A20462BF086FD616A421C204666
S2140078402BF04FFD054620B9236B626C1344143BA6
S21400785023632046A16A2BF0E2FD2368A062C01ACB
S214007860636CB0FBF3F0606220462BF01BFEB6E7BD
S21400787000232046044AFFF7DBFDDAE7DD7F000041
S214007880597F0000A53503004135030073B50D464A
S214007890D11E4A421C461B7E4A419A4226D129687E
S2140078A02368994222D3636899421FD8114E0DF17E
S2140078B007033246FFF712FDC0B972686B689A423A
S2140078C014D19DF80730DA1E53425341227E93426C
S2140078D00CD1636901336361D4E90323934205D273
S2140078E02968A26842F8231001332361012002B000
S2140078F070BD00BFB03400202DE9F04F9B4689B024
S2140079009DF848309046514A0193136907465B45F7
S2140079100D46C0F09580D94653680093B9F1000F24
S2140079207BD0FB6B01225B6905A90098984705A8E8
S2140079302CF064F8454B1B68984240F0848005A8FC
S2140079402CF068F80428064615D105A82CF069F82E
S214007950009B04461E44019B002B3ED1804512D955
S2140079601C46A8EB0008384600992BF058FDA9EBFA
S21400797004090090D2E7FB6B02225B69009806A917
S214007980984706A8E2E7A0EB08045C4528BF5C46DB
S214007990032C4644ABEB040B1DD9FB6B2946304643
S2140079A05B69A208984724F0030304F0030A1E4408
S2140079B01D44DDF80480BAF1000FD4D0FB6B012221
S2140079C006A930465B6998475246284606A912F033
S2140079D047F95544C7E7A246EBE7824600F00303A3
S2140079E002932B1803930644039BA6EB0A00A3EB13
S2140079F00A05029B9A4514D1BAF1000FB3D0FB6B6F
S214007A00012206A95B6998475246284606A912F045
S214007A10E3FA0028DDD04FF03609484609B0BDE845
S214007A20F08FFB6B012206A95B6998470422284663
S214007A3006A912F0D1FA0028EDD1AAF1040AD3E77C
S214007A404FF06309E9E74FF06F09E6E7DC34002002
S214007A502DE9F0410F4616469846044688B060B3B6
S214007A6090F83450FDB101212BF011FC00210E9B43
S214007A70CDE90511CDE902379DF83C30CDF80480FC
S214007A808DF81C30237C04968BB90D4901AA04F1AD
S214007A90080000F055FFDDE90553E06B002E08BF37
S214007AA01D462BF08DFD284608B0BDE8F081204627
S214007AB0044A01ABFFF7BCFCEDE70546F3E700BF61
S214007AC06F3503008D7800007FB590F8426004465D
S214007AD001920DF10B030A46304611492BF078FD52
S214007AE0012E0546E36B17D132465B6903A998471A
S214007AF09DF80B10039B019A59B19BB243EA0243CF
S214007B00012228460393E36B03A99B69984704B0B8
S214007B1070BD62F30F03F3E701229B6901A9F5E745
S214007B20DC3400202DE9F04F99B00E460D920A691C
S214007B30416C0B931439D31DB3FBF1F3013302EB05
S214007B40C302036B04469342C0F001820023DFF8B1
S214007B5004940893E36A48461946059300F074FFB8
S214007B60D6E9033707930B9B022B4DD1CC2F40F061
S214007B70D7810D9B3BB1314620462BF07FFD656CCF
S214007B801490012044E00120079B656C1B68149349
S214007B9000F0010000280CBF04230823782F0E9362
S214007BA049D8059A6B1E1340ED1A3B1D9D423CD2E8
S214007BB0002F3DD0082D3ED80023042506934FF015
S214007BC0040A336806990B98C9F80030C9F8107093
S214007BD02BF03AFF4FEA9A030F93059B89F814009F
S214007BE00393002309930C9304930A93616C039BFD
S214007BF04A1E1A408B1A27B35544AB4223D8236B30
S214007C005B1A134423632FE1782F656CB9D8F07D97
S214007C100D9B002BBCD0E36B01225B69706816A934
S214007C20984716A82BF0EEFEB4E700250695C6E7A3
S214007C3004250697C3E7012300254FF0080A06939C
S214007C40BFE75345DBD3A3EB0A029742039BB84634
S214007C5028BF90469742534428D90122D9F81010DD
S214007C6089F817208F4226D10399C9F80410049288
S214007C7099F817200AB399F818100398CA1C09EB4C
S214007C80C202506004980131A2F80880907289F808
S214007C901810B8F1000F07D00B9A022A40F0818026
S214007CA0099A72B1012209929B46ABE0049A002A17
S214007CB018BF0322DBE70222D9E7039AC9F804209B
S214007CC0E7E70C9A4244032AEED9E26B1846956918
S214007CD014A901220993A847099B05460028E1D06C
S214007CE03D2D40F01E8104F1080303932368059A96
S214007CF0606CA2EB030ABAFBF0FA00FB0A302BF02A
S214007D003BFFE16A804620462BF089FBA26A82424E
S214007D1000F00F81626CD9F80830511E0B40216BC1
S214007D202768891A0B442363089BE062DF1BB7FBB6
S214007D30F2F7BA4540F0FA80059BB3EB080A12D07A
S214007D40E36B4FEA9A0241469B6998478346E36A8B
S214007D50059A5344E362236B03989B1A43442363B8
S214007D602BF062FDDA462368616CE06B01FB07319D
S214007D702BF077FE20462BF095FA20462BF092FB50
S214007D802063BAF1000F00F0D4803269616CD31D15
S214007D901439B3FBF1F3013302EBC3029042A5D2D0
S214007DA0BFE00D9A002A77D1B8F1030F4FEA980288
S214007DB06ED9E16B18468D6907991093A847109BFA
S214007DC00546C0B918F0030515D0079A28F0030B2E
S214007DD002EB0B019B444FF0FF3215A815922A4682
S214007DE0109311F03DFFE26B5846956915A90122E4
S214007DF0A8470546109B9B46079A42440792002DCB
S214007E0040F08B80049B16A80193069B009399F87C
S214007E1014204346316800F0CDFDE36B0F9A9B6952
S214007E20039816A99847039A051E089B18BF134681
S214007E30089343465246204603992BF01DFB236BBE
S214007E4008F10302A3EB0A0322F003029B1AC9F807
S214007E5008002363002D7FF443AF0C9BA7EB0807B5
S214007E6043440C93CDF80CB0204603992BF0D7FA78
S214007E7000250390002F7FF4B9AE364A3168936828
S214007E8004F10800E36252680B9B00F00BFD49E02A
S214007E909B46454607999EE79B4606F120021092B0
S214007EA0F27D7068A2B1002296F818C00A99D5B281
S214007EB0AC4511D9109D02F1010E35F832508D42B5
S214007EC028D90E9806EBC2020144D069084403E0A4
S214007ED00E9A0A990A441044E26B15A955690122C4
S214007EE01193A847159A0A9B1392E26B043395697F
S214007EF05846012213A90A93A847119B054603EB8F
S214007F000802A2EB0B02042A7FF679AF28B90BF120
S214007F10040BC5E77246491BC9E7CDF820B088E7D1
S214007F2070252F46384619B0BDE8F08F4FF0000A8E
S214007F3019E73269616CD31D1439B3FBF1F30133D1
S214007F4002EBC302236B9342BFF404AEE9E71C279F
S214007F50E8E700BF84340020032A2DE9F3410646F3
S214007F600D4617461C4606D1237A012B23D0012046
S214007F7002B0BDE8F081DFF86080096842460DF186
S214007F800703FFF7ABF960600028EDD19DF80720E6
S214007F90237A032AE8D0D8F804106A689142E3D11D
S214007FA0012B2969D4F80CC007D172690CEB0103C8
S214007FB0934202D92074207CDAE708316144E160FC
S214007FC03B46012229463046FFF7ACFD606000289C
S214007FD0CAD00020CCE700BFB03400202DE9F34122
S214007FE0089C032A1746266806D1237A012B24D03C
S214007FF0012002B0BDE8F081DFF8908030464246AE
S2140080000DF10703FFF76AF960600028EDD12568D7
S214008010D8F80400A96AD5F844C04840CCF100035B
S2140080201840227AE1D1012A09D1E268D8F8103046
S21400803013447269934202D92074207CD9E72868D9
S214008040EB6A1B1A081AB3FBFCF3B0FBFCF0834286
S2140080500BD1706CF36A421E1340326B121A134433
S214008060284633632BF0DBF9E862D8F81020E36883
S21400807008321344E36001223B4604492068FFF7B8
S21400808051FD60600028B0D00020B2E7B034002078
S2140080902DE9F0410025604B0E46D3F800800446DB
S2140080A01D6018B921252846BDE8F08190F8347087
S2140080B007B30A6803689A4240F0A3804A68436898
S2140080C09A4240F09E808A6883689A4240F099807F
S2140080D0CA68C3689A4240F094800A6943699A4223
S2140080E040F08F808A69C36B9A4240F08A804B6961
S2140080F08361D8E768223946856B11F021FCD6E902
S2140081000212336804F1080023607368A563636095
S214008110336963617369A3612BF098FBB36904F15B
S2140081204000E3639B68984720B9676C17B16368A3
S214008130B3FBF7F794F84330E761002BB2D0002387
S214008140656C2366002D64D0002F62D02368B3FBD5
S214008150F5F205FB1233002B55D16668B6FBF5F336
S21400816005FB1363002B4ED120462BF067F8A3695E
S214008170043303449E4248D340F634726369CC3BD2
S214008180934244D8B5F5805F43D3032120462BF0B5
S2140081907EF8D4E90001E36B1B6898470546E36B5D
S2140081A00220DB689847CDB941462046FFF77AF9AA
S2140081B06428054604D141462046FFF773F9054674
S2140081C0666C5DB9236A2046143E5E432BF036F893
S2140081D0A369043303449E4238BF5A25002D0CBFC2
S2140081E00123002384F8343007D1D4E900010B4A78
S2140081F01368013313602BF0C3FBE06B2BF0E0F940
S21400820051E75D254FE759254DE75A254BE75F2592
S21400821049E75B2547E700BF142E0020102E0020FC
S2140082202DE9FF410C4616461F46054680B390F8DA
S21400823034307BB3B1F5801F2ED2DFF86080012189
S2140082402BF025F82146424628460DF10F03FFF78E
S21400825045F8044670B99DF80F30012B11D1D8F8B7
S2140082601030BB4212D10246009031462846FFF736
S21400827043FB0446E86B2BF0A3F9204604B0BDE8A8
S214008280F081022B14BF2D246024F3E76324F1E76A
S2140082902124F2E71124F0E72924EEE7DC3400205D
S2140082A02DE9F04385B00C4617461E460546DDF818
S2140082B0308098B390F8343093B3B1F5801F31D244
S2140082C0DFF8649001212AF0E2FF21464A4628465C
S2140082D00DF10F03FFF702F8044688B99DF80F303A
S2140082E0012B14D1D9F8102006EB08039A4213D3B9
S2140082F000904346324639462846FFF7FDFA0446C4
S214008300E86B2BF05DF9204605B0BDE8F083022B44
S21400831014BF2D246024F3E76324F1E72124F2E759
S2140083201124F0E72924EEE7DC34002073B50C4670
S2140083301646054630B390F834302BB3B1F5801F9F
S21400834024D201212AF0A3FF21462846104A0DF127
S2140083500703FEF7C3FF044680B99DF80730032BDA
S2140083600CD0022B0CD1284609492BF087F9306037
S214008370E86B2BF025F9204602B070BD2D24F7E7F8
S2140083806124F5E72124F6E71124F4E72924F2E72F
S214008390DC3400202DE9F3411E4600230C46174628
S2140083A00546336050B390F834304BB3B1F5801FB8
S2140083B028D2DFF8548001212AF069FF2146424680
S2140083C028460DF10703FEF789FF0446A0B99DF87D
S2140083D00730032B10D0022B03BF01233B6004237E
S2140083E0D8F8103018BF38603360E86B2BF0E8F828
S2140083F0204602B0BDE8F0812D24F6E72124F7E7F9
S2140084001124F5E72924F3E7DC34002073B504468D
S214008410056B2AF013FF636E03449D422CBF0023B6
S2140084200123854294BF00252D1A207C84F8503005
S214008430656584F85800A8B100230C4E1A46194604
S214008440204600962BF0DEF9002305461A4619460C
S214008450204600962BF0DFF9E3682844984294BF44
S2140084600020C01AE06502B070BD00BFFFFF0F001D
S2140084702DE9F3471E4643690446B342884617462D
S2140084809DF828904ED300258DF8075020462AF0F8
S214008490D5FED4F830A082450AD2236AB5EB430F46
S2140084A006D2002220460DF10701FFF745F9B8B3C2
S2140084B09DF80730012B05D1002220460DF107015B
S2140084C0FFF73AF9B9F1030F06D0314620462AF0F5
S2140084D0A5FE256B854227D3144D4FF0FF31284665
S2140084E000F0B2FA4B46294600222046C5E903763C
S2140084F0C5F80080FFF716FB236E054663B12046DD
S214008500FFF784FF94F8503013B994F858301BB135
S214008510236E04F150009847284602B0BDE8F08765
S2140085200135B3E76225F7E71C25F5E7B0340020F0
S2140085302DE9FF410F4690461E46054698B390F833
S214008540343093B3B1F5801F31D21A4C02212AF091
S2140085509EFE2246394628460DF10F03FEF7BEFE64
S214008560024678B1012342460093394633462846F0
S214008570FFF77EFF0446E86B2BF022F8204604B097
S214008580BDE8F0819DF80F30012BEBD12169B14297
S214008590E8D10093414633462846FFF7ADF9044636
S2140085A00028DFD1E7E72124E8E71124E6E72924BD
S2140085B0E4E700BFDC3400202DE9F04790F84230B5
S2140085C086B0012B05460391A1EB020740F0AA8076
S2140085D0FF2F03D81E464FF0640807E00226012B43
S2140085E014BF4FF032084FF06408013600244FF6EF
S2140085F0FF79DFF844A195F84230012B14BF3223EF
S21400860064239C4202D35FFA88F40DE005AB224651
S214008610514628462BF010F895F84230012B059B62
S21400862034D14B452DD1E4B295F84230012B14BF1E
S21400863032226422121BB24217D3012E39D10022F5
S214008640012B05978DF8132027D1082205A90DF1D7
S21400865013002BF0ADFA9DF81330059A42EA032278
S21400866021462846FFF730FA40B1022332490093EC
S2140086702846CC23096803AAFFF7FAFE06B0BDE831
S214008680F087DBB203B902340134B4E7591CCAD010
S2140086909BB2002BF8D10134F6E7102205A90DF1A4
S2140086A013002BF085FA9DF81330059A42EA034230
S2140086B0D6E7039A012B059223D10823202205A989
S2140086C00DF113008DF813302BF072FA9DF813207D
S2140086D0120221462846FFF7F7F995F84230611C4A
S2140086E0012BC9B21AD10028BFD12846BDF81420E4
S2140086F0FFF7EAF90028B8D10234BDF81620E1B237
S214008700AFE71023202205A90DF113008DF81330D2
S2140087102BF04EFA9DF813201204DAE70028A4D1B5
S214008720059A9EE7B7F5803F4FF00106BFF457AFB6
S2140087304FF032085AE700BFDC34002070B586B030
S2140087400E4605460392A0B390F834309BB3B1F5BD
S214008750801F32D202212AF09AFD31462846184A56
S2140087600DF11703FEF7BAFD044618B99DF8173049
S214008770032B0ED10223314600932846CC2303AAAE
S214008780FFF776FE0446E86B2AF01AFF204606B08E
S21400879070BD022B0BD10A4928462AF06FFF0399B9
S2140087A002468142EFD02846FFF706FFEAE761243B
S2140087B0E9E72124EAE71124E8E72924E6E700BFF1
S2140087C0DC340020F7B50C461646054668B390F82C
S2140087D0343063B3B1F5801F2BD202212AF057FD47
S2140087E021462846144A0DF10703FEF777FDC0B967
S2140087F09DF80730032B14D0022B14D10E492846BF
S2140088002AF03CFF471C024639462846FFF7D4FEAE
S214008810044606B13760E86B2AF0D2FE204603B065
S214008820F0BD2D24F7E76124F5E72124F6E71124AF
S214008830F4E72924F2E700BFDC34002030B50C460C
S214008840054685B028B390F8343023B3B1F5801FC1
S21400885023D202212AF01BFD0DF10F0321462846E4
S2140088600F4AFEF73BFD034688B99DF80F20032A02
S2140088700DD003222146009202462846FFF7F8FD57
S2140088800446E86B2AF09CFE204605B030BD2D2439
S214008890F7E72124F8E71124F6E72924F4E700BFD8
S2140088A0DC3400202DE9F043466886B30568984618
S2140088B04FF0000CA946AE4655F83C400CF1010CB2
S2140088C0C4F31307013401D0B94217D0B4450EF1F2
S2140088D0080EF1D12F46002403E0B44207F1080742
S2140088E012D055F8343001340133F6D1C1F31301F8
S2140088F041EA0851C7E90012BDE8F08341EA085191
S214008900CEE90012BDE8F083B8F1030F03D10123CE
S2140089100372BDE8F083002303E0B34209F10809BF
S214008920F5D055F833400133C4F30754032CF4D183
S214008930C1F3130343EA0853C9E90032BDE8F083E4
S2140089402DE9F0410646406882B0B8B10F46904621
S2140089500024336853F8345003EBC403C5F30752BE
S214008960C5F31301013506D05B683046CDF80080AC
S214008970B84718B1706801348442EAD302B0BDE843
S214008980F08100BF024B1968024B1868FFF780BBE6
S214008990B05F0020D05F002008B534F058FE014BD1
S2140089A0186008BD08350020014B186834F04ABE30
S2140089B00835002073B504462248012A00EAC11192
S2140089C09DF8185023F07C4007D9961E012E28D912
S2140089D0073303F07F03194308E09DF81C300A4371
S2140089E0DB0603F0C053134343F060410023C4E9A1
S2140089F000108DF80730B5B1202221460DF1070092
S214008A002BF0D6F81A220DF10700211D2BF0D0F816
S214008A10082063689DF8072043EA8263636002B01B
S214008A2070BD1143E2E71B220DF1070021462BF033
S214008A30BFF823689DF80720042043EAC26323603A
S214008A40EDE700BF80FFFF0738B5094B0D461A68F3
S214008A500021044610F074FF00234FF0FF322383FA
S214008A60C4E900252361A260E382A37638BD00BF77
S214008A70347504000138C0B205289ABF014B185C53
S214008A8001207047397504002DE9F0410746154668
S214008A9000240E46596888B0490A012922464FEA42
S214008AA0510104F10104F8D8DC78997824031B8876
S214008AB0C90201F4006104F480540C43C3F30A03B2
S214008AC05203234492B24FF000089C18274B6FEADB
S214008AD00444039325F07843ED4302A90DF1070003
S214008AE01B2202938DF807802BF062F89DF8072072
S214008AF0029B02A943EAC2630DF107001B2225F080
S214008B007845049302958DF807802BF051F89DF870
S214008B100720029B6FEA144443EAC26305934FF0B2
S214008B20FF330794069307A9BB69012206F11000DC
S214008B309847BB6905A90446012206F10800984734
S214008B40BB69404518BF044604A90122301D98475A
S214008B500122404518BF0446BB69304603A9984722
S214008B60404508BF204608B0BDE8F08101009AB233
S214008B7038B5104B0546D3F800310C4603F0030316
S214008B80022B0BD0032B0DD0012B0FD132F038FE69
S214008B90032305B1286004B1236038BD32F07AFEA5
S214008BA00723F6E734F066FD0623F2E701230020EC
S214008BB0EFE700BF0080005038B5134B0546D3F8EA
S214008BC020010C4600F0070004281AD8DFE800F061
S214008BD003090D111500012305B1286004B12360B7
S214008BE038BD32F0D3FD0423F6E732F009FE032346
S214008BF0F2E732F00BFE0523EEE732F0FDFD02232E
S214008C00EAE700231846E7E70080005038B5104B27
S214008C100546D3F840310C4603F00303022B0BD075
S214008C20032B0DD0012B0FD134F026FD082305B100
S214008C30286004B1236038BD32F02CFE0723F6E727
S214008C4034F01DFD0923F2E701230020EFE700BF03
S214008C500080005038B5104B0546D3F860310C46FE
S214008C6003F00303022B0BD0032B0DD0012B0FD1E7
S214008C7034F002FD082305B1286004B1236038BD36
S214008C8032F008FE0723F6E734F0F9FC0923F2E792
S214008C9001230020EFE700BF0080005041F671324C
S214008CA010B5104C104BA04294BF00240124D96983
S214008CB0DA639A6801F4803122F4401242EA0452E0
S214008CC09A600A4A90420A4AD2F818028CBF40F0CC
S214008CD0020020F00200C2F8180209B10022DA638E
S214008CE010BD00BF005A62020000035080F0FA0276
S214008CF000C007502E4B98424AD022D82D4B98429F
S214008D0040D014D82C4B984239D00AD82B4B9842D6
S214008D1032D02B4B98422FD02A4B98422CD0002092
S214008D207047294B9842FAD1284B186F7047284B4A
S214008D3098422AD0274B9842F1D1244BD3F8800092
S214008D407047254B98422BD009D8244B984223D005
S214008D50234B9842E3D11D4BD3F88C007047214B30
S214008D60984221D003F5740303F510539842D6D1E8
S214008D70164BD3F898007047144B986D7047134BFA
S214008D80586E7047114B586F7047104B986F70476E
S214008D900E4BD3F8840070470C4BD3F8880070470E
S214008DA00A4BD3F890007047084BD3F894007047EE
S214008DB00048E8010024F400C0CF6A0080841E004A
S214008DC000093D0040420F00405DC6000080E00FF5
S214008DD0C0EA210180BA8C01007E560380D543028A
S214008DE0006CDC020090D00337B50C460021114B16
S214008DF00191D3F88031054603F00303022B0ED011
S214008E00032B11D0012B03D101A8FFF7D5FE0D21AE
S214008E100DB1019B2B6004B1216003B030BD32F070
S214008E20F5FC05210190F3E732F0E6FC0221019003
S214008E30EEE700BF0080005038B5104B0546D3F86B
S214008E4040320C4603F00303022B0BD0032B0DD04D
S214008E50012B0FD134F010FC082305B1286004B1B3
S214008E60236038BD32F016FD0723F6E734F007FC22
S214008E700923F2E700231846EFE700BF0080005002
S214008E8038B5144B0546D3F800020C4600F0070030
S214008E9004281BD8DFE800F003090D111500012394
S214008EA005B1286004B1236038BD34F0E5FB082323
S214008EB0F6E732F0EFFC0723F2E734F0E0FB092395
S214008EC0EEE732F083FC0C23800AE9E7002318461D
S214008ED0E6E700BF0080005038B5144B0546D3F8CF
S214008EE008020C4600F0070004281BD8DFE800F054
S214008EF003090D111500012305B1286004B1236094
S214008F0038BD34F0B9FB0823F6E732F0C3FC07237C
S214008F10F2E734F0B4FB0923EEE732F057FC0C23FB
S214008F20800AE9E700231846E6E700BF0080005005
S214008F30032814D005D8012805D0022809D000201F
S214008F4005E00F28FBD1084B186FC0F30130013045
S214008F507047054BD3F89000C0F30460F7E7024B68
S214008F60186FC0F38020F2E7008000501FB5002382
S214008F700193252817D8DFE800F0131A1D272C3692
S214008F803B51565B60656A78161A401616561A27C5
S214008F902C27361A5127783B3B3B3B2727275B601D
S214008FA032F0FAFB0190019805B05DF804FB32F050
S214008FB00DFCF7E732F0F0FB02460220FFF7B8FFA1
S214008FC0B2FBF0F20192EEE732F000FC024603201C
S214008FD0F4E732F0FBFB02460320FFF7A9FFB2FBE3
S214008FE0F0F25208EEE7002101A8FFF7FDFEDAE7EF
S214008FF0002101A8FFF7E0FDD5E702934FF0E0233C
S2140090001B695B0705D532F0E1FB0290029B0193DA
S214009010C9E703A902A8FFF7F9FDF7E7002101A8B1
S214009020FFF7F4FDBFE7002101A8FFF713FEBAE73C
S214009030002101A8FFF724FFB5E7002101A8FFF7EC
S2140090404BFFB0E7002101A8FFF792FDABE7094B05
S214009050D3F8803003F00303022BA8D0032B01D0F3
S21400906000209FE732F0D2FB9CE7002101A8FFF723
S214009070E3FE98E70080005008B50120FFF776FF72
S214009080BDE808400349884294BF0121022103201D
S21400909000F002B880F0FA02032810B50C4627D07C
S2140090A004D8012804D0022817D010BD0F28FCD100
S2140090B02AF09CFD2AF0A2FD124A013C136F23F40D
S2140090C0405343EA0433136732F080FB0021FFF776
S2140090D0E5FDBDE81040FFF7CFBF0A4A4C1ED2F8A8
S2140090E0903023F0F85343EA0463C2F89030DCE78C
S2140090F0044A4C1E136F23F4806343EA84231367E9
S214009100D3E700BF008000501FB500230193252839
S21400911021D8DFE800F013202020202A2F454A4FD0
S21400912054595E7120203420204A202020202A20F6
S2140091304520712F2F2F2F2020204F54314B1B6F8F
S21400914003F00703013B032B05D8DFE803F00C020E
S214009150080A04230193019805B05DF804FB032375
S214009160F8E70623F6E70223F4E7002001A9FFF755
S2140091703BFEF0E7002001A9FFF71EFDEBE7029398
S2140091804FF0E0231B695B0705D532F01FFB0B236E
S2140091900393039BDEE703A902A8FFF737FDF8E772
S2140091A0002001A9FFF732FDD5E7002001A9FFF74F
S2140091B051FDD0E7002001A9FFF762FECBE70020B3
S2140091C001A9FFF789FEC6E7002001A9FFF7D0FC3A
S2140091D0C1E70C4BD3F8803003F00303022B03D017
S2140091E0032B05D00023B5E732F0F0FA0B23B1E7E6
S2140091F032F00CFB0523ADE7002001A9FFF71CFEAB
S214009200A9E700BF0080005008B50320FFF790FED6
S214009210034B18702AF0EAFCBDE808402AF0EEBCC2
S2140092202056002010B5044632F0D0FA0021FFF791
S21400923035FD1CB1BDE81040FFF71EBF034B0320F1
S214009240BDE810401978FFF727BF00BF2056002062
S21400925038B50546FFF74EFD204B04465A68012AEE
S21400926004D11F494A609A699207FCD10020FFF793
S2140092704BFF042803D12AF0B9FC2AF0BFFC194A98
S21400928024F0407395421FD0174A95421FD0174AC4
S214009290D16811F0060FFBD19068936091684B403F
S2140092A013F4F81F16D12846FDF794FD0020FFF7AB
S2140092B02BFF042810D132F089FA0021FFF7EEFCCC
S2140092C0BDE83840FFF7D8BE43F00073DFE743F051
S2140092D08073DCE79060E9E738BD00BF00C001504E
S2140092E000E0015040420F0080841E000000015044
S2140092F070B504460020FFF707FF03287CD045F62C
S2140093000E030221414AC2F88030414B9962012186
S21400931003F580539962936DD903FCD4D4E9001306
S2140093201B0543EA0163E17B94F823500B43217B42
S21400933043EA0143617B43EA0133A17B43EA81139D
S21400934013619169D4E904031B0643EA806301F0C4
S21400935000410B43A17EE07E0B43217E43EA01439E
S214009360617E43EA01239361E169136A002923F0D1
S2140093700D0343EA010314BF0121002143EA8003E1
S21400938043EAC103136294F8203094F82200916AED
S2140093904FEA431331D194F8216021F0330143EAB8
S2140093A006130B4343F0010393621A49174A936D61
S2140093B031EA0303FBD10221154B9962936D5B00E2
S2140093C0FCD41369A16823F4700343EA01531361C4
S2140093D04FF000420E4B9A6118B9022203F58053F3
S2140093E09A6215B901220C4B9A6294F824301BB18C
S2140093F0064B0A4AC3F8802070BD21F0330129438A
S2140094000B4343EA40039362EFE700BF00C00050FF
S21400941000D000500300014000E00050F1A7FFFF1D
S214009420014B93F90000704721560020014B18802D
S214009430704700BF586400200C4A10B513690446F4
S21400944043F00403136132F031FD2AF0DBFB084BD6
S214009450084AC3F8202430BF2AF0D5FB01F078FF75
S2140094601CB9BDE8104032F0B1B910BD00ED00E007
S21400947000E003500000FFFF034A0179D36E23F09B
S21400948030030B43D366704700400050072A2DE98F
S214009490F0410D46144698460FD803269700BE4066
S2140094A000FA07F2314615482AF0B0FB05F0030231
S2140094B031461348BA402AF0A9FB124B12499DF8D0
S2140094C01800B8F1000F18BF1946012303FA04F478
S2140094D00C600E4B0E49002818BF0B461C600D4B47
S2140094E09DF81C00C3F82044103103F224430028E2
S2140094F018BF0B461C60BDE8F08100BF00C40350D7
S21400950008C4035010D4035010E4035014E403506E
S21400951014D4035000E00350F8B504460D461F4629
S21400952016464AB101238B403021184A01FB00221F
S214009530F7B141F21001535004EB4403072D4FF0EE
S2140095400F014FEA031316D8A80006FA00F281406E
S2140095500F4818442AF05AFB4EB9012330210B4A13
S214009560AB4001FB042277B141F210015350F8BD25
S21400957042F21001DFE7A5F10800800006FA00F2CB
S21400958081400448E5E742F21001EFE700C00350CF
S21400959004C003500CC003503022064B072902FBC0
S2140095A000338ABF08395868D8688900C84000F078
S2140095B00F00704700C0035041F67132034BDA6368
S2140095C0012203F50053DA60704700BF0000035025
S2140095D041F671320121044BDA6303F50052D16083
S2140095E00022DA63704700BF00000350044B18687F
S2140095F0421C02BF034AD2F894001860704700BFAE
S214009600D45F002000400050CB784A7810B55B014C
S2140096100C7843EA82030A79234343EA02130C22B6
S214009620424302F1B0421363012C02BF8A78024B18
S21400963043F8202010BD00BFD080035008B54FF07F
S214009640B0435A6802B960B15B680BB12AF0F3FA0E
S2140096504FF0B04130B10120074B58602AF0EBFACA
S214009660C86008BD2AF0E7FA0223CB602AF0E3FAC6
S2140096700122024B5A60F4E7001000580020005800
S2140096804FF0B0414B6810B50BB12AF0D4FA012266
S2140096900B4BC4785A608378934043EA840344783B
S2140096A02343047943EA0413447943EAC4038B60F2
S2140096B0044B5A600378C3F10203CB6010BD00BFB1
S2140096C00020005800100058054B5B69C3F3851254
S2140096D0827003F03F021B0B42700370704700BF9E
S2140096E000C007500120034B9B680A3303F01F039A
S2140096F0984070470080E00F034BD3F82424D3F83B
S21400970020041040704700BF00C003502DE9F84306
S2140097101E4B0546D3F810334B1E0E2B0E4617462F
S21400972090F8009044781DD909B34FF000082846F9
S214009730D7B133F0A7FF09EB4903072C4FF00F0111
S2140097404FEA031315D8A400114808FA04F2A14002
S21400975018442AF078FABEB928468FB1BDE8F84317
S21400976033F090BF8846E2E72AF07CFAE3E78846C3
S214009770E1E7083CA400074808FA04F2A140E7E73E
S214009780BDE8F8432AF06EBABDE8F88300C003507F
S21400979004C003500CC003502DE9F041204B164680
S2140097A0D3F810234A1C05460C46407804D1D3F85B
S2140097B024142AF065FA0446002C2EDB072C14DC51
S2140097C003274FEA84082A7807FA08F73946154827
S2140097D002FA08F22AF037FA6A78394602F00302EB
S2140097E0114802FA08F22AF02EFA012316F0050FA5
S2140097F00E4A18BF0E4903FA04F30CBFC2F8103421
S214009800C1F8103416F0060F18BF094AC2F814340F
S2140098100123064AA340C2F820342046BDE8F08162
S21400982000C0035000C4035008C4035000E00350B7
S21400983000D0035070B504462EF0C9FE064630B977
S2140098400FCC044D0FC594E80F0085E80F00304696
S21400985070BD00BF0C35002047F6FF739A42F0B586
S21400986070D0022970D8394B5B5C022B6CD8384D0F
S214009870DE0005EBC304A77815F83330012F394610
S21400988038BF0121012B16D1E078401A002188420A
S21400989005D8012F2CBFC0190130C0B2F0BD431A45
S2140098A06568A0EB530335F913509542D4BF1946AB
S2140098B003F1FF30EBE760680028EFD0B0F9004016
